{
  "_format": "hh-sol-artifact-1",
  "contractName": "SettleInvoiceAction",
  "sourceName": "contracts/SettleInvoiceAction.sol",
  "abi": [
    {
      "inputs": [
        {
          "internalType": "address",
          "name": "_invoiceNFT",
          "type": "address"
        }
      ],
      "stateMutability": "nonpayable",
      "type": "constructor"
    },
    {
      "inputs": [
        {
          "internalType": "address",
          "name": "owner",
          "type": "address"
        }
      ],
      "name": "OwnableInvalidOwner",
      "type": "error"
    },
    {
      "inputs": [
        {
          "internalType": "address",
          "name": "account",
          "type": "address"
        }
      ],
      "name": "OwnableUnauthorizedAccount",
      "type": "error"
    },
    {
      "inputs": [],
      "name": "ReentrancyGuardReentrantCall",
      "type": "error"
    },
    {
      "anonymous": false,
      "inputs": [
        {
          "indexed": true,
          "internalType": "uint256",
          "name": "tokenId",
          "type": "uint256"
        },
        {
          "indexed": true,
          "internalType": "address",
          "name": "settler",
          "type": "address"
        },
        {
          "indexed": true,
          "internalType": "address",
          "name": "recipient",
          "type": "address"
        },
        {
          "indexed": false,
          "internalType": "uint256",
          "name": "amount",
          "type": "uint256"
        },
        {
          "indexed": false,
          "internalType": "bool",
          "name": "isRepayment",
          "type": "bool"
        }
      ],
      "name": "InvoiceSettled",
      "type": "event"
    },
    {
      "anonymous": false,
      "inputs": [
        {
          "indexed": true,
          "internalType": "address",
          "name": "previousOwner",
          "type": "address"
        },
        {
          "indexed": true,
          "internalType": "address",
          "name": "newOwner",
          "type": "address"
        }
      ],
      "name": "OwnershipTransferred",
      "type": "event"
    },
    {
      "inputs": [],
      "name": "description",
      "outputs": [
        {
          "internalType": "string",
          "name": "",
          "type": "string"
        }
      ],
      "stateMutability": "view",
      "type": "function"
    },
    {
      "inputs": [
        {
          "internalType": "uint256",
          "name": "tokenId",
          "type": "uint256"
        },
        {
          "internalType": "bool",
          "name": "isRepayment",
          "type": "bool"
        }
      ],
      "name": "execute",
      "outputs": [
        {
          "internalType": "bool",
          "name": "success",
          "type": "bool"
        }
      ],
      "stateMutability": "payable",
      "type": "function"
    },
    {
      "inputs": [],
      "name": "getMetadata",
      "outputs": [
        {
          "internalType": "string",
          "name": "",
          "type": "string"
        },
        {
          "internalType": "string",
          "name": "",
          "type": "string"
        },
        {
          "internalType": "string",
          "name": "",
          "type": "string"
        }
      ],
      "stateMutability": "pure",
      "type": "function"
    },
    {
      "inputs": [],
      "name": "invoiceNFT",
      "outputs": [
        {
          "internalType": "contract InvoiceNFT",
          "name": "",
          "type": "address"
        }
      ],
      "stateMutability": "view",
      "type": "function"
    },
    {
      "inputs": [],
      "name": "name",
      "outputs": [
        {
          "internalType": "string",
          "name": "",
          "type": "string"
        }
      ],
      "stateMutability": "view",
      "type": "function"
    },
    {
      "inputs": [],
      "name": "owner",
      "outputs": [
        {
          "internalType": "address",
          "name": "",
          "type": "address"
        }
      ],
      "stateMutability": "view",
      "type": "function"
    },
    {
      "inputs": [],
      "name": "renounceOwnership",
      "outputs": [],
      "stateMutability": "nonpayable",
      "type": "function"
    },
    {
      "inputs": [
        {
          "internalType": "address",
          "name": "newOwner",
          "type": "address"
        }
      ],
      "name": "transferOwnership",
      "outputs": [],
      "stateMutability": "nonpayable",
      "type": "function"
    },
    {
      "inputs": [],
      "name": "version",
      "outputs": [
        {
          "internalType": "string",
          "name": "",
          "type": "string"
        }
      ],
      "stateMutability": "view",
      "type": "function"
    },
    {
      "stateMutability": "payable",
      "type": "receive"
    }
  ],
  "bytecode": "0x60a060405234801561001057600080fd5b50604051610da6380380610da683398101604081905261002f9161011b565b338061005657604051631e4fbdf760e01b8152600060048201526024015b60405180910390fd5b61005f816100cb565b50600180556001600160a01b0381166100ba5760405162461bcd60e51b815260206004820152601a60248201527f496e76616c696420496e766f6963654e46542061646472657373000000000000604482015260640161004d565b6001600160a01b031660805261014b565b600080546001600160a01b038381166001600160a01b0319831681178455604051919092169283917f8be0079c531659141344cd1fd0a4f28419497f9722a3daafe3b4186f6b6457e09190a35050565b60006020828403121561012d57600080fd5b81516001600160a01b038116811461014457600080fd5b9392505050565b608051610c256101816000396000818160fd0152818161023c015281816103390152818161051e01526106630152610c256000f3fe60806040526004361061008a5760003560e01c8063715018a611610059578063715018a61461018b5780637284e416146101a25780637a5b4f59146101b75780638da5cb5b146101db578063f2fde38b146101f957600080fd5b806306fdde03146100965780634bb6f06d146100eb57806354fd4d501461013757806365153c4b1461016857600080fd5b3661009157005b600080fd5b3480156100a257600080fd5b506100d56040518060400160405280601381526020017229b2ba3a3632a4b73b37b4b1b2a0b1ba34b7b760691b81525081565b6040516100e291906108fd565b60405180910390f35b3480156100f757600080fd5b5061011f7f000000000000000000000000000000000000000000000000000000000000000081565b6040516001600160a01b0390911681526020016100e2565b34801561014357600080fd5b506100d5604051806040016040528060058152602001640312e302e360dc1b81525081565b61017b610176366004610917565b610219565b60405190151581526020016100e2565b34801561019757600080fd5b506101a0610725565b005b3480156101ae57600080fd5b506100d5610739565b3480156101c357600080fd5b506101cc610755565b6040516100e29392919061094c565b3480156101e757600080fd5b506000546001600160a01b031661011f565b34801561020557600080fd5b506101a06102143660046109a4565b6107c8565b6000610223610806565b604051631d11e60560e11b8152600481018490526000907f00000000000000000000000000000000000000000000000000000000000000006001600160a01b031690633a23cc0a90602401600060405180830381865afa15801561028b573d6000803e3d6000fd5b505050506040513d6000823e601f3d908101601f191682016040526102b39190810190610a9e565b9050600181610100015160038111156102ce576102ce610b8a565b146103205760405162461bcd60e51b815260206004820152601960248201527f496e766f696365206e6f7420696e20736f6c642073746174650000000000000060448201526064015b60405180910390fd5b6040516331a9108f60e11b8152600481018590526000907f00000000000000000000000000000000000000000000000000000000000000006001600160a01b031690636352211e90602401602060405180830381865afa158015610388573d6000803e3d6000fd5b505050506040513d601f19601f820116820180604052508101906103ac9190610ba0565b905083156105d05781606001516001600160a01b0316336001600160a01b0316146104115760405162461bcd60e51b81526020600482015260156024820152744f6e6c7920636c69656e742063616e20726570617960581b6044820152606401610317565b81608001513410156104655760405162461bcd60e51b815260206004820152601b60248201527f496e73756666696369656e74207061796d656e7420616d6f756e7400000000006044820152606401610317565b6000816001600160a01b03163460405160006040518083038185875af1925050503d80600081146104b2576040519150601f19603f3d011682016040523d82523d6000602084013e6104b7565b606091505b50509050806105085760405162461bcd60e51b815260206004820152601760248201527f5061796d656e74207472616e73666572206661696c65640000000000000000006044820152606401610317565b6040516333ddad4760e01b8152600481018790527f00000000000000000000000000000000000000000000000000000000000000006001600160a01b0316906333ddad4790602401600060405180830381600087803b15801561056a57600080fd5b505af115801561057e573d6000803e3d6000fd5b505060408051348152600160208201526001600160a01b038616935033925089917f10b4506c7fd9d1b2d48ab4fd66d758440f04275d3cb4de90dadcdc5e19e6f1ab910160405180910390a450610710565b336001600160a01b03821614806105f157506000546001600160a01b031633145b61064d5760405162461bcd60e51b815260206004820152602760248201527f4f6e6c79206f776e6572206f7220696e766573746f722063616e206d61726b20604482015266191959985d5b1d60ca1b6064820152608401610317565b60405163543a181160e11b8152600481018690527f00000000000000000000000000000000000000000000000000000000000000006001600160a01b03169063a874302290602401600060405180830381600087803b1580156106af57600080fd5b505af11580156106c3573d6000803e3d6000fd5b505060408051600080825260208201526001600160a01b038516935033925088917f10b4506c7fd9d1b2d48ab4fd66d758440f04275d3cb4de90dadcdc5e19e6f1ab910160405180910390a45b60019250505061071f60018055565b92915050565b61072d610830565b610737600061085d565b565b604051806060016040528060328152602001610bbe6032913981565b60608060606040518060400160405280601381526020017229b2ba3a3632a4b73b37b4b1b2a0b1ba34b7b760691b815250604051806060016040528060328152602001610bbe60329139604051806040016040528060058152602001640312e302e360dc1b815250925092509250909192565b6107d0610830565b6001600160a01b0381166107fa57604051631e4fbdf760e01b815260006004820152602401610317565b6108038161085d565b50565b60026001540361082957604051633ee5aeb560e01b815260040160405180910390fd5b6002600155565b6000546001600160a01b031633146107375760405163118cdaa760e01b8152336004820152602401610317565b600080546001600160a01b038381166001600160a01b0319831681178455604051919092169283917f8be0079c531659141344cd1fd0a4f28419497f9722a3daafe3b4186f6b6457e09190a35050565b60005b838110156108c85781810151838201526020016108b0565b50506000910152565b600081518084526108e98160208601602086016108ad565b601f01601f19169290920160200192915050565b60208152600061091060208301846108d1565b9392505050565b6000806040838503121561092a57600080fd5b823591506020830135801515811461094157600080fd5b809150509250929050565b60608152600061095f60608301866108d1565b828103602084015261097181866108d1565b9050828103604084015261098581856108d1565b9695505050505050565b6001600160a01b038116811461080357600080fd5b6000602082840312156109b657600080fd5b81356109108161098f565b634e487b7160e01b600052604160045260246000fd5b604051610140810167ffffffffffffffff811182821017156109fb576109fb6109c1565b60405290565b8051610a0c8161098f565b919050565b600082601f830112610a2257600080fd5b815167ffffffffffffffff80821115610a3d57610a3d6109c1565b604051601f8301601f19908116603f01168101908282118183101715610a6557610a656109c1565b81604052838152866020858801011115610a7e57600080fd5b6109858460208301602089016108ad565b805160048110610a0c57600080fd5b600060208284031215610ab057600080fd5b815167ffffffffffffffff80821115610ac857600080fd5b908301906101408286031215610add57600080fd5b610ae56109d7565b82518152610af560208401610a01565b6020820152610b0660408401610a01565b6040820152610b1760608401610a01565b60608201526080830151608082015260a083015160a082015260c083015160c082015260e083015182811115610b4c57600080fd5b610b5887828601610a11565b60e0830152506101009150610b6e828401610a8f565b9181019190915261012091820151918101919091529392505050565b634e487b7160e01b600052602160045260246000fd5b600060208284031215610bb257600080fd5b81516109108161098f56fe536574746c6520616e20696e766f696365204e4654207468726f7567682072657061796d656e74206f722064656661756c74a264697066735822122023e82d95abbc4ea0a619a9ede48704b74305eff3ca5d9a1cbeb2e8ff5a4f757d64736f6c63430008140033",
  "linkReferences": {},
  "deployedLinkReferences": {}
}