{
  "_format": "hh-sol-artifact-1",
  "contractName": "PurchaseInvoiceAction",
  "sourceName": "contracts/PurchaseInvoiceAction.sol",
  "abi": [
    {
      "inputs": [
        {
          "internalType": "address",
          "name": "_invoiceNFT",
          "type": "address"
        },
        {
          "internalType": "uint256",
          "name": "_platformFeeRate",
          "type": "uint256"
        },
        {
          "internalType": "address",
          "name": "_platformWallet",
          "type": "address"
        }
      ],
      "stateMutability": "nonpayable",
      "type": "constructor"
    },
    {
      "inputs": [
        {
          "internalType": "address",
          "name": "owner",
          "type": "address"
        }
      ],
      "name": "OwnableInvalidOwner",
      "type": "error"
    },
    {
      "inputs": [
        {
          "internalType": "address",
          "name": "account",
          "type": "address"
        }
      ],
      "name": "OwnableUnauthorizedAccount",
      "type": "error"
    },
    {
      "inputs": [],
      "name": "ReentrancyGuardReentrantCall",
      "type": "error"
    },
    {
      "anonymous": false,
      "inputs": [
        {
          "indexed": true,
          "internalType": "uint256",
          "name": "tokenId",
          "type": "uint256"
        },
        {
          "indexed": true,
          "internalType": "address",
          "name": "buyer",
          "type": "address"
        },
        {
          "indexed": true,
          "internalType": "address",
          "name": "seller",
          "type": "address"
        },
        {
          "indexed": false,
          "internalType": "uint256",
          "name": "purchaseAmount",
          "type": "uint256"
        },
        {
          "indexed": false,
          "internalType": "uint256",
          "name": "platformFee",
          "type": "uint256"
        }
      ],
      "name": "InvoicePurchased",
      "type": "event"
    },
    {
      "anonymous": false,
      "inputs": [
        {
          "indexed": true,
          "internalType": "address",
          "name": "previousOwner",
          "type": "address"
        },
        {
          "indexed": true,
          "internalType": "address",
          "name": "newOwner",
          "type": "address"
        }
      ],
      "name": "OwnershipTransferred",
      "type": "event"
    },
    {
      "inputs": [],
      "name": "description",
      "outputs": [
        {
          "internalType": "string",
          "name": "",
          "type": "string"
        }
      ],
      "stateMutability": "view",
      "type": "function"
    },
    {
      "inputs": [
        {
          "internalType": "uint256",
          "name": "tokenId",
          "type": "uint256"
        }
      ],
      "name": "execute",
      "outputs": [
        {
          "internalType": "bool",
          "name": "success",
          "type": "bool"
        }
      ],
      "stateMutability": "payable",
      "type": "function"
    },
    {
      "inputs": [],
      "name": "getMetadata",
      "outputs": [
        {
          "internalType": "string",
          "name": "",
          "type": "string"
        },
        {
          "internalType": "string",
          "name": "",
          "type": "string"
        },
        {
          "internalType": "string",
          "name": "",
          "type": "string"
        }
      ],
      "stateMutability": "pure",
      "type": "function"
    },
    {
      "inputs": [],
      "name": "invoiceNFT",
      "outputs": [
        {
          "internalType": "contract InvoiceNFT",
          "name": "",
          "type": "address"
        }
      ],
      "stateMutability": "view",
      "type": "function"
    },
    {
      "inputs": [],
      "name": "name",
      "outputs": [
        {
          "internalType": "string",
          "name": "",
          "type": "string"
        }
      ],
      "stateMutability": "view",
      "type": "function"
    },
    {
      "inputs": [],
      "name": "owner",
      "outputs": [
        {
          "internalType": "address",
          "name": "",
          "type": "address"
        }
      ],
      "stateMutability": "view",
      "type": "function"
    },
    {
      "inputs": [],
      "name": "platformFeeRate",
      "outputs": [
        {
          "internalType": "uint256",
          "name": "",
          "type": "uint256"
        }
      ],
      "stateMutability": "view",
      "type": "function"
    },
    {
      "inputs": [],
      "name": "platformWallet",
      "outputs": [
        {
          "internalType": "address",
          "name": "",
          "type": "address"
        }
      ],
      "stateMutability": "view",
      "type": "function"
    },
    {
      "inputs": [],
      "name": "renounceOwnership",
      "outputs": [],
      "stateMutability": "nonpayable",
      "type": "function"
    },
    {
      "inputs": [
        {
          "internalType": "address",
          "name": "newOwner",
          "type": "address"
        }
      ],
      "name": "transferOwnership",
      "outputs": [],
      "stateMutability": "nonpayable",
      "type": "function"
    },
    {
      "inputs": [
        {
          "internalType": "uint256",
          "name": "newRate",
          "type": "uint256"
        }
      ],
      "name": "updatePlatformFeeRate",
      "outputs": [],
      "stateMutability": "nonpayable",
      "type": "function"
    },
    {
      "inputs": [
        {
          "internalType": "address",
          "name": "newWallet",
          "type": "address"
        }
      ],
      "name": "updatePlatformWallet",
      "outputs": [],
      "stateMutability": "nonpayable",
      "type": "function"
    },
    {
      "inputs": [],
      "name": "version",
      "outputs": [
        {
          "internalType": "string",
          "name": "",
          "type": "string"
        }
      ],
      "stateMutability": "view",
      "type": "function"
    },
    {
      "stateMutability": "payable",
      "type": "receive"
    }
  ],
  "bytecode": "0x60a06040523480156200001157600080fd5b5060405162000fbc38038062000fbc83398101604081905262000034916200020c565b33806200005c57604051631e4fbdf760e01b8152600060048201526024015b60405180910390fd5b62000067816200019f565b50600180556001600160a01b038316620000c45760405162461bcd60e51b815260206004820152601a60248201527f496e76616c696420496e766f6963654e46542061646472657373000000000000604482015260640162000053565b6103e8821115620001185760405162461bcd60e51b815260206004820152601a60248201527f506c6174666f726d20666565207261746520746f6f2068696768000000000000604482015260640162000053565b6001600160a01b038116620001705760405162461bcd60e51b815260206004820152601760248201527f496e76616c696420706c6174666f726d2077616c6c6574000000000000000000604482015260640162000053565b6001600160a01b03928316608052600291909155600380546001600160a01b031916919092161790556200024d565b600080546001600160a01b038381166001600160a01b0319831681178455604051919092169283917f8be0079c531659141344cd1fd0a4f28419497f9722a3daafe3b4186f6b6457e09190a35050565b80516001600160a01b03811681146200020757600080fd5b919050565b6000806000606084860312156200022257600080fd5b6200022d84620001ef565b9250602084015191506200024460408501620001ef565b90509250925092565b608051610d45620002776000396000818161013b015281816104c501526107de0152610d456000f3fe6080604052600436106100c65760003560e01c80638da5cb5b1161007f578063eeca08f011610059578063eeca08f014610254578063f2fde38b14610278578063fa2af9da14610298578063fe0d94c1146102b857600080fd5b80638da5cb5b146101f6578063ada4ef3014610214578063ae3b7f061461023457600080fd5b806306fdde03146100d25780634bb6f06d1461012957806354fd4d5014610175578063715018a6146101a65780637284e416146101bd5780637a5b4f59146101d257600080fd5b366100cd57005b600080fd5b3480156100de57600080fd5b5061011360405180604001604052806015815260200174283ab931b430b9b2a4b73b37b4b1b2a0b1ba34b7b760591b81525081565b60405161012091906109b3565b60405180910390f35b34801561013557600080fd5b5061015d7f000000000000000000000000000000000000000000000000000000000000000081565b6040516001600160a01b039091168152602001610120565b34801561018157600080fd5b50610113604051806040016040528060058152602001640312e302e360dc1b81525081565b3480156101b257600080fd5b506101bb6102db565b005b3480156101c957600080fd5b506101136102ef565b3480156101de57600080fd5b506101e761030b565b604051610120939291906109cd565b34801561020257600080fd5b506000546001600160a01b031661015d565b34801561022057600080fd5b506101bb61022f366004610a25565b610380565b34801561024057600080fd5b506101bb61024f366004610a42565b610405565b34801561026057600080fd5b5061026a60025481565b604051908152602001610120565b34801561028457600080fd5b506101bb610293366004610a25565b610464565b3480156102a457600080fd5b5060035461015d906001600160a01b031681565b6102cb6102c6366004610a42565b6104a2565b6040519015158152602001610120565b6102e36108bc565b6102ed60006108e9565b565b6040518060600160405280602e8152602001610ce2602e913981565b606080606060405180604001604052806015815260200174283ab931b430b9b2a4b73b37b4b1b2a0b1ba34b7b760591b8152506040518060600160405280602e8152602001610ce2602e9139604051806040016040528060058152602001640312e302e360dc1b815250925092509250909192565b6103886108bc565b6001600160a01b0381166103e35760405162461bcd60e51b815260206004820152601760248201527f496e76616c696420706c6174666f726d2077616c6c657400000000000000000060448201526064015b60405180910390fd5b600380546001600160a01b0319166001600160a01b0392909216919091179055565b61040d6108bc565b6103e881111561045f5760405162461bcd60e51b815260206004820152601a60248201527f506c6174666f726d20666565207261746520746f6f206869676800000000000060448201526064016103da565b600255565b61046c6108bc565b6001600160a01b03811661049657604051631e4fbdf760e01b8152600060048201526024016103da565b61049f816108e9565b50565b60006104ac610939565b604051631d11e60560e11b8152600481018390526000907f00000000000000000000000000000000000000000000000000000000000000006001600160a01b031690633a23cc0a90602401600060405180830381865afa158015610514573d6000803e3d6000fd5b505050506040513d6000823e601f3d908101601f1916820160405261053c9190810190610b33565b90506000816101000151600381111561055757610557610c1f565b1461059b5760405162461bcd60e51b8152602060048201526014602482015273496e766f696365206e6f7420666f722073616c6560601b60448201526064016103da565b8060a0015134146105ee5760405162461bcd60e51b815260206004820152601860248201527f496e636f7272656374207061796d656e7420616d6f756e74000000000000000060448201526064016103da565b60208101516001600160a01b0316330361064a5760405162461bcd60e51b815260206004820181905260248201527f534d452063616e6e6f7420627579207468656972206f776e20696e766f69636560448201526064016103da565b60006127106002543461065d9190610c4b565b6106679190610c68565b905060006106758234610c8a565b6003546040519192506000916001600160a01b039091169084908381818185875af1925050503d80600081146106c7576040519150601f19603f3d011682016040523d82523d6000602084013e6106cc565b606091505b505090508061071d5760405162461bcd60e51b815260206004820152601c60248201527f506c6174666f726d20666565207472616e73666572206661696c65640000000060448201526064016103da565b600084602001516001600160a01b03168360405160006040518083038185875af1925050503d806000811461076e576040519150601f19603f3d011682016040523d82523d6000602084013e610773565b606091505b50509050806107c45760405162461bcd60e51b815260206004820152601e60248201527f53656c6c6572207061796d656e74207472616e73666572206661696c6564000060448201526064016103da565b6040516001621c262360e11b031981526001600160a01b037f0000000000000000000000000000000000000000000000000000000000000000169063ffc7b3ba90610818908a906001903390600401610c9d565b600060405180830381600087803b15801561083257600080fd5b505af1158015610846573d6000803e3d6000fd5b5050505084602001516001600160a01b0316336001600160a01b0316887f8e5bc56de41348bb8bc82a4d4182151868f8b839cc6a69eb2676043c37026b64348860405161089d929190918252602082015260400190565b60405180910390a46001955050505050506108b760018055565b919050565b6000546001600160a01b031633146102ed5760405163118cdaa760e01b81523360048201526024016103da565b600080546001600160a01b038381166001600160a01b0319831681178455604051919092169283917f8be0079c531659141344cd1fd0a4f28419497f9722a3daafe3b4186f6b6457e09190a35050565b60026001540361095c57604051633ee5aeb560e01b815260040160405180910390fd5b6002600155565b60005b8381101561097e578181015183820152602001610966565b50506000910152565b6000815180845261099f816020860160208601610963565b601f01601f19169290920160200192915050565b6020815260006109c66020830184610987565b9392505050565b6060815260006109e06060830186610987565b82810360208401526109f28186610987565b90508281036040840152610a068185610987565b9695505050505050565b6001600160a01b038116811461049f57600080fd5b600060208284031215610a3757600080fd5b81356109c681610a10565b600060208284031215610a5457600080fd5b5035919050565b634e487b7160e01b600052604160045260246000fd5b604051610140810167ffffffffffffffff81118282101715610a9557610a95610a5b565b60405290565b80516108b781610a10565b600082601f830112610ab757600080fd5b815167ffffffffffffffff80821115610ad257610ad2610a5b565b604051601f8301601f19908116603f01168101908282118183101715610afa57610afa610a5b565b81604052838152866020858801011115610b1357600080fd5b610a06846020830160208901610963565b8051600481106108b757600080fd5b600060208284031215610b4557600080fd5b815167ffffffffffffffff80821115610b5d57600080fd5b908301906101408286031215610b7257600080fd5b610b7a610a71565b82518152610b8a60208401610a9b565b6020820152610b9b60408401610a9b565b6040820152610bac60608401610a9b565b60608201526080830151608082015260a083015160a082015260c083015160c082015260e083015182811115610be157600080fd5b610bed87828601610aa6565b60e0830152506101009150610c03828401610b24565b9181019190915261012091820151918101919091529392505050565b634e487b7160e01b600052602160045260246000fd5b634e487b7160e01b600052601160045260246000fd5b8082028115828204841417610c6257610c62610c35565b92915050565b600082610c8557634e487b7160e01b600052601260045260246000fd5b500490565b81810381811115610c6257610c62610c35565b8381526060810160048410610cc257634e487b7160e01b600052602160045260246000fd5b60208201939093526001600160a01b039190911660409091015291905056fe507572636861736520616e20696e766f696365204e4654207769746820737065636966696564207061796d656e74a264697066735822122045443f35ab72d15107aa4829c164c67b31f70c24e08d2e1320b9de3eb293f23764736f6c63430008140033",
  "linkReferences": {},
  "deployedLinkReferences": {}
}