{
  "_format": "hh-sol-artifact-1",
  "contractName": "MintInvoiceAction",
  "sourceName": "contracts/MintInvoiceAction.sol",
  "abi": [
    {
      "inputs": [
        {
          "internalType": "address",
          "name": "_invoiceNFT",
          "type": "address"
        }
      ],
      "stateMutability": "nonpayable",
      "type": "constructor"
    },
    {
      "inputs": [
        {
          "internalType": "address",
          "name": "owner",
          "type": "address"
        }
      ],
      "name": "OwnableInvalidOwner",
      "type": "error"
    },
    {
      "inputs": [
        {
          "internalType": "address",
          "name": "account",
          "type": "address"
        }
      ],
      "name": "OwnableUnauthorizedAccount",
      "type": "error"
    },
    {
      "inputs": [],
      "name": "ReentrancyGuardReentrantCall",
      "type": "error"
    },
    {
      "anonymous": false,
      "inputs": [
        {
          "indexed": true,
          "internalType": "uint256",
          "name": "tokenId",
          "type": "uint256"
        },
        {
          "indexed": true,
          "internalType": "address",
          "name": "sme",
          "type": "address"
        },
        {
          "indexed": true,
          "internalType": "address",
          "name": "client",
          "type": "address"
        },
        {
          "indexed": false,
          "internalType": "uint256",
          "name": "faceValue",
          "type": "uint256"
        },
        {
          "indexed": false,
          "internalType": "uint256",
          "name": "salePrice",
          "type": "uint256"
        },
        {
          "indexed": false,
          "internalType": "uint256",
          "name": "dueDate",
          "type": "uint256"
        },
        {
          "indexed": false,
          "internalType": "string",
          "name": "invoiceURI",
          "type": "string"
        }
      ],
      "name": "InvoiceMinted",
      "type": "event"
    },
    {
      "anonymous": false,
      "inputs": [
        {
          "indexed": true,
          "internalType": "address",
          "name": "previousOwner",
          "type": "address"
        },
        {
          "indexed": true,
          "internalType": "address",
          "name": "newOwner",
          "type": "address"
        }
      ],
      "name": "OwnershipTransferred",
      "type": "event"
    },
    {
      "inputs": [],
      "name": "description",
      "outputs": [
        {
          "internalType": "string",
          "name": "",
          "type": "string"
        }
      ],
      "stateMutability": "view",
      "type": "function"
    },
    {
      "inputs": [
        {
          "internalType": "address",
          "name": "sme",
          "type": "address"
        },
        {
          "internalType": "address",
          "name": "client",
          "type": "address"
        },
        {
          "internalType": "uint256",
          "name": "faceValue",
          "type": "uint256"
        },
        {
          "internalType": "uint256",
          "name": "salePrice",
          "type": "uint256"
        },
        {
          "internalType": "uint256",
          "name": "dueDate",
          "type": "uint256"
        },
        {
          "internalType": "string",
          "name": "invoiceURI",
          "type": "string"
        }
      ],
      "name": "execute",
      "outputs": [
        {
          "internalType": "bool",
          "name": "success",
          "type": "bool"
        },
        {
          "internalType": "uint256",
          "name": "tokenId",
          "type": "uint256"
        }
      ],
      "stateMutability": "nonpayable",
      "type": "function"
    },
    {
      "inputs": [],
      "name": "getMetadata",
      "outputs": [
        {
          "internalType": "string",
          "name": "",
          "type": "string"
        },
        {
          "internalType": "string",
          "name": "",
          "type": "string"
        },
        {
          "internalType": "string",
          "name": "",
          "type": "string"
        }
      ],
      "stateMutability": "pure",
      "type": "function"
    },
    {
      "inputs": [],
      "name": "invoiceNFT",
      "outputs": [
        {
          "internalType": "contract InvoiceNFT",
          "name": "",
          "type": "address"
        }
      ],
      "stateMutability": "view",
      "type": "function"
    },
    {
      "inputs": [],
      "name": "name",
      "outputs": [
        {
          "internalType": "string",
          "name": "",
          "type": "string"
        }
      ],
      "stateMutability": "view",
      "type": "function"
    },
    {
      "inputs": [],
      "name": "owner",
      "outputs": [
        {
          "internalType": "address",
          "name": "",
          "type": "address"
        }
      ],
      "stateMutability": "view",
      "type": "function"
    },
    {
      "inputs": [],
      "name": "renounceOwnership",
      "outputs": [],
      "stateMutability": "nonpayable",
      "type": "function"
    },
    {
      "inputs": [
        {
          "internalType": "address",
          "name": "newOwner",
          "type": "address"
        }
      ],
      "name": "transferOwnership",
      "outputs": [],
      "stateMutability": "nonpayable",
      "type": "function"
    },
    {
      "inputs": [],
      "name": "version",
      "outputs": [
        {
          "internalType": "string",
          "name": "",
          "type": "string"
        }
      ],
      "stateMutability": "view",
      "type": "function"
    }
  ],
  "bytecode": "0x60a060405234801561001057600080fd5b50604051610b52380380610b5283398101604081905261002f9161011b565b338061005657604051631e4fbdf760e01b8152600060048201526024015b60405180910390fd5b61005f816100cb565b50600180556001600160a01b0381166100ba5760405162461bcd60e51b815260206004820152601a60248201527f496e76616c696420496e766f6963654e46542061646472657373000000000000604482015260640161004d565b6001600160a01b031660805261014b565b600080546001600160a01b038381166001600160a01b0319831681178455604051919092169283917f8be0079c531659141344cd1fd0a4f28419497f9722a3daafe3b4186f6b6457e09190a35050565b60006020828403121561012d57600080fd5b81516001600160a01b038116811461014457600080fd5b9392505050565b6080516109e561016d6000396000818161010d01526104a301526109e56000f3fe608060405234801561001057600080fd5b50600436106100935760003560e01c8063715018a611610066578063715018a61461016b5780637284e416146101755780637a5b4f591461017d5780638da5cb5b14610194578063f2fde38b146101a557600080fd5b806306fdde03146100985780631f24bc3d146100de5780634bb6f06d1461010857806354fd4d5014610147575b600080fd5b6100c86040518060400160405280601181526020017026b4b73a24b73b37b4b1b2a0b1ba34b7b760791b81525081565b6040516100d5919061075d565b60405180910390f35b6100f16100ec3660046107a9565b6101b8565b6040805192151583526020830191909152016100d5565b61012f7f000000000000000000000000000000000000000000000000000000000000000081565b6040516001600160a01b0390911681526020016100d5565b6100c8604051806040016040528060058152602001640312e302e360dc1b81525081565b610173610591565b005b6100c86105a5565b6101856105c1565b6040516100d593929190610897565b6000546001600160a01b031661012f565b6101736101b33660046108da565b610632565b6000806101c3610670565b6001600160a01b03881661021e5760405162461bcd60e51b815260206004820152601a60248201527f534d4520616464726573732063616e6e6f74206265207a65726f00000000000060448201526064015b60405180910390fd5b6001600160a01b0387166102745760405162461bcd60e51b815260206004820152601d60248201527f436c69656e7420616464726573732063616e6e6f74206265207a65726f0000006044820152606401610215565b876001600160a01b0316876001600160a01b0316036102d55760405162461bcd60e51b815260206004820152601860248201527f534d452063616e6e6f742062652074686520636c69656e7400000000000000006044820152606401610215565b600086116103315760405162461bcd60e51b8152602060048201526024808201527f466163652076616c7565206d7573742062652067726561746572207468616e206044820152637a65726f60e01b6064820152608401610215565b6000851161038d5760405162461bcd60e51b8152602060048201526024808201527f53616c65207072696365206d7573742062652067726561746572207468616e206044820152637a65726f60e01b6064820152608401610215565b8585106103ec5760405162461bcd60e51b815260206004820152602760248201527f53616c65207072696365206d757374206265206c657373207468616e20666163604482015266652076616c756560c81b6064820152608401610215565b42841161043b5760405162461bcd60e51b815260206004820152601e60248201527f4475652064617465206d75737420626520696e207468652066757475726500006044820152606401610215565b600083511161048c5760405162461bcd60e51b815260206004820152601b60248201527f496e766f696365205552492063616e6e6f7420626520656d70747900000000006044820152606401610215565b604051635c55550f60e11b81526001600160a01b037f0000000000000000000000000000000000000000000000000000000000000000169063b8aaaa1e906104e2908b908b908b908b908b908b906004016108f5565b6020604051808303816000875af1158015610501573d6000803e3d6000fd5b505050506040513d601f19601f82011682018060405250810190610525919061093e565b9050866001600160a01b0316886001600160a01b0316827fb9411861b7112116894f58dc77f5b53959980400b5b5843a116bc9e92f6e89e1898989896040516105719493929190610957565b60405180910390a46001915061058660018055565b965096945050505050565b61059961069a565b6105a360006106c7565b565b60405180606001604052806033815260200161097d6033913981565b60608060606040518060400160405280601181526020017026b4b73a24b73b37b4b1b2a0b1ba34b7b760791b81525060405180606001604052806033815260200161097d60339139604051806040016040528060058152602001640312e302e360dc1b815250925092509250909192565b61063a61069a565b6001600160a01b03811661066457604051631e4fbdf760e01b815260006004820152602401610215565b61066d816106c7565b50565b60026001540361069357604051633ee5aeb560e01b815260040160405180910390fd5b6002600155565b6000546001600160a01b031633146105a35760405163118cdaa760e01b8152336004820152602401610215565b600080546001600160a01b038381166001600160a01b0319831681178455604051919092169283917f8be0079c531659141344cd1fd0a4f28419497f9722a3daafe3b4186f6b6457e09190a35050565b6000815180845260005b8181101561073d57602081850181015186830182015201610721565b506000602082860101526020601f19601f83011685010191505092915050565b6020815260006107706020830184610717565b9392505050565b80356001600160a01b038116811461078e57600080fd5b919050565b634e487b7160e01b600052604160045260246000fd5b60008060008060008060c087890312156107c257600080fd5b6107cb87610777565b95506107d960208801610777565b945060408701359350606087013592506080870135915060a087013567ffffffffffffffff8082111561080b57600080fd5b818901915089601f83011261081f57600080fd5b81358181111561083157610831610793565b604051601f8201601f19908116603f0116810190838211818310171561085957610859610793565b816040528281528c602084870101111561087257600080fd5b8260208601602083013760006020848301015280955050505050509295509295509295565b6060815260006108aa6060830186610717565b82810360208401526108bc8186610717565b905082810360408401526108d08185610717565b9695505050505050565b6000602082840312156108ec57600080fd5b61077082610777565b600060018060a01b03808916835280881660208401525085604083015284606083015283608083015260c060a083015261093260c0830184610717565b98975050505050505050565b60006020828403121561095057600080fd5b5051919050565b8481528360208201528260408201526080606082015260006108d0608083018461071756fe4d696e7420616e20696e766f69636520617320616e204e465420776974682073706563696669656420706172616d6574657273a2646970667358221220519bf8f5135c7b97bbc136d6b5232a8190af74025bbf71ad539e667bbc41cbd264736f6c63430008140033",
  "linkReferences": {},
  "deployedLinkReferences": {}
}