{
  "_format": "hh-sol-artifact-1",
  "contractName": "InvoiceNFT",
  "sourceName": "contracts/InvoiceNFT.sol",
  "abi": [
    {
      "inputs": [],
      "stateMutability": "nonpayable",
      "type": "constructor"
    },
    {
      "inputs": [
        {
          "internalType": "address",
          "name": "sender",
          "type": "address"
        },
        {
          "internalType": "uint256",
          "name": "tokenId",
          "type": "uint256"
        },
        {
          "internalType": "address",
          "name": "owner",
          "type": "address"
        }
      ],
      "name": "ERC721IncorrectOwner",
      "type": "error"
    },
    {
      "inputs": [
        {
          "internalType": "address",
          "name": "operator",
          "type": "address"
        },
        {
          "internalType": "uint256",
          "name": "tokenId",
          "type": "uint256"
        }
      ],
      "name": "ERC721InsufficientApproval",
      "type": "error"
    },
    {
      "inputs": [
        {
          "internalType": "address",
          "name": "approver",
          "type": "address"
        }
      ],
      "name": "ERC721InvalidApprover",
      "type": "error"
    },
    {
      "inputs": [
        {
          "internalType": "address",
          "name": "operator",
          "type": "address"
        }
      ],
      "name": "ERC721InvalidOperator",
      "type": "error"
    },
    {
      "inputs": [
        {
          "internalType": "address",
          "name": "owner",
          "type": "address"
        }
      ],
      "name": "ERC721InvalidOwner",
      "type": "error"
    },
    {
      "inputs": [
        {
          "internalType": "address",
          "name": "receiver",
          "type": "address"
        }
      ],
      "name": "ERC721InvalidReceiver",
      "type": "error"
    },
    {
      "inputs": [
        {
          "internalType": "address",
          "name": "sender",
          "type": "address"
        }
      ],
      "name": "ERC721InvalidSender",
      "type": "error"
    },
    {
      "inputs": [
        {
          "internalType": "uint256",
          "name": "tokenId",
          "type": "uint256"
        }
      ],
      "name": "ERC721NonexistentToken",
      "type": "error"
    },
    {
      "inputs": [],
      "name": "EnforcedPause",
      "type": "error"
    },
    {
      "inputs": [],
      "name": "ExpectedPause",
      "type": "error"
    },
    {
      "inputs": [
        {
          "internalType": "address",
          "name": "owner",
          "type": "address"
        }
      ],
      "name": "OwnableInvalidOwner",
      "type": "error"
    },
    {
      "inputs": [
        {
          "internalType": "address",
          "name": "account",
          "type": "address"
        }
      ],
      "name": "OwnableUnauthorizedAccount",
      "type": "error"
    },
    {
      "inputs": [],
      "name": "ReentrancyGuardReentrantCall",
      "type": "error"
    },
    {
      "anonymous": false,
      "inputs": [
        {
          "indexed": true,
          "internalType": "address",
          "name": "owner",
          "type": "address"
        },
        {
          "indexed": true,
          "internalType": "address",
          "name": "approved",
          "type": "address"
        },
        {
          "indexed": true,
          "internalType": "uint256",
          "name": "tokenId",
          "type": "uint256"
        }
      ],
      "name": "Approval",
      "type": "event"
    },
    {
      "anonymous": false,
      "inputs": [
        {
          "indexed": true,
          "internalType": "address",
          "name": "owner",
          "type": "address"
        },
        {
          "indexed": true,
          "internalType": "address",
          "name": "operator",
          "type": "address"
        },
        {
          "indexed": false,
          "internalType": "bool",
          "name": "approved",
          "type": "bool"
        }
      ],
      "name": "ApprovalForAll",
      "type": "event"
    },
    {
      "anonymous": false,
      "inputs": [
        {
          "indexed": false,
          "internalType": "address",
          "name": "oldMinter",
          "type": "address"
        },
        {
          "indexed": false,
          "internalType": "address",
          "name": "newMinter",
          "type": "address"
        }
      ],
      "name": "AuthorizedMinterUpdated",
      "type": "event"
    },
    {
      "anonymous": false,
      "inputs": [
        {
          "indexed": false,
          "internalType": "address",
          "name": "oldPurchaser",
          "type": "address"
        },
        {
          "indexed": false,
          "internalType": "address",
          "name": "newPurchaser",
          "type": "address"
        }
      ],
      "name": "AuthorizedPurchaserUpdated",
      "type": "event"
    },
    {
      "anonymous": false,
      "inputs": [
        {
          "indexed": false,
          "internalType": "address",
          "name": "oldSettler",
          "type": "address"
        },
        {
          "indexed": false,
          "internalType": "address",
          "name": "newSettler",
          "type": "address"
        }
      ],
      "name": "AuthorizedSettlerUpdated",
      "type": "event"
    },
    {
      "anonymous": false,
      "inputs": [
        {
          "indexed": true,
          "internalType": "uint256",
          "name": "tokenId",
          "type": "uint256"
        },
        {
          "indexed": true,
          "internalType": "address",
          "name": "investor",
          "type": "address"
        },
        {
          "indexed": false,
          "internalType": "uint256",
          "name": "faceValue",
          "type": "uint256"
        }
      ],
      "name": "InvoiceDefaulted",
      "type": "event"
    },
    {
      "anonymous": false,
      "inputs": [
        {
          "indexed": true,
          "internalType": "uint256",
          "name": "tokenId",
          "type": "uint256"
        },
        {
          "indexed": true,
          "internalType": "address",
          "name": "investor",
          "type": "address"
        },
        {
          "indexed": true,
          "internalType": "address",
          "name": "client",
          "type": "address"
        },
        {
          "indexed": false,
          "internalType": "uint256",
          "name": "faceValue",
          "type": "uint256"
        }
      ],
      "name": "InvoiceRepaid",
      "type": "event"
    },
    {
      "anonymous": false,
      "inputs": [
        {
          "indexed": true,
          "internalType": "uint256",
          "name": "tokenId",
          "type": "uint256"
        },
        {
          "indexed": true,
          "internalType": "address",
          "name": "sme",
          "type": "address"
        },
        {
          "indexed": true,
          "internalType": "address",
          "name": "investor",
          "type": "address"
        },
        {
          "indexed": false,
          "internalType": "uint256",
          "name": "salePrice",
          "type": "uint256"
        }
      ],
      "name": "InvoiceSold",
      "type": "event"
    },
    {
      "anonymous": false,
      "inputs": [
        {
          "indexed": true,
          "internalType": "uint256",
          "name": "tokenId",
          "type": "uint256"
        },
        {
          "indexed": true,
          "internalType": "address",
          "name": "sme",
          "type": "address"
        },
        {
          "indexed": true,
          "internalType": "address",
          "name": "client",
          "type": "address"
        },
        {
          "indexed": false,
          "internalType": "uint256",
          "name": "faceValue",
          "type": "uint256"
        },
        {
          "indexed": false,
          "internalType": "uint256",
          "name": "salePrice",
          "type": "uint256"
        },
        {
          "indexed": false,
          "internalType": "uint256",
          "name": "dueDate",
          "type": "uint256"
        },
        {
          "indexed": false,
          "internalType": "string",
          "name": "invoiceURI",
          "type": "string"
        }
      ],
      "name": "InvoiceTokenized",
      "type": "event"
    },
    {
      "anonymous": false,
      "inputs": [
        {
          "indexed": true,
          "internalType": "address",
          "name": "previousOwner",
          "type": "address"
        },
        {
          "indexed": true,
          "internalType": "address",
          "name": "newOwner",
          "type": "address"
        }
      ],
      "name": "OwnershipTransferred",
      "type": "event"
    },
    {
      "anonymous": false,
      "inputs": [
        {
          "indexed": false,
          "internalType": "address",
          "name": "account",
          "type": "address"
        }
      ],
      "name": "Paused",
      "type": "event"
    },
    {
      "anonymous": false,
      "inputs": [
        {
          "indexed": false,
          "internalType": "uint256",
          "name": "oldFee",
          "type": "uint256"
        },
        {
          "indexed": false,
          "internalType": "uint256",
          "name": "newFee",
          "type": "uint256"
        }
      ],
      "name": "PlatformFeeUpdated",
      "type": "event"
    },
    {
      "anonymous": false,
      "inputs": [
        {
          "indexed": true,
          "internalType": "address",
          "name": "from",
          "type": "address"
        },
        {
          "indexed": true,
          "internalType": "address",
          "name": "to",
          "type": "address"
        },
        {
          "indexed": true,
          "internalType": "uint256",
          "name": "tokenId",
          "type": "uint256"
        }
      ],
      "name": "Transfer",
      "type": "event"
    },
    {
      "anonymous": false,
      "inputs": [
        {
          "indexed": false,
          "internalType": "address",
          "name": "account",
          "type": "address"
        }
      ],
      "name": "Unpaused",
      "type": "event"
    },
    {
      "inputs": [],
      "name": "MAX_PLATFORM_FEE",
      "outputs": [
        {
          "internalType": "uint256",
          "name": "",
          "type": "uint256"
        }
      ],
      "stateMutability": "view",
      "type": "function"
    },
    {
      "inputs": [
        {
          "internalType": "address",
          "name": "to",
          "type": "address"
        },
        {
          "internalType": "uint256",
          "name": "tokenId",
          "type": "uint256"
        }
      ],
      "name": "approve",
      "outputs": [],
      "stateMutability": "nonpayable",
      "type": "function"
    },
    {
      "inputs": [],
      "name": "authorizedMinter",
      "outputs": [
        {
          "internalType": "address",
          "name": "",
          "type": "address"
        }
      ],
      "stateMutability": "view",
      "type": "function"
    },
    {
      "inputs": [],
      "name": "authorizedPurchaser",
      "outputs": [
        {
          "internalType": "address",
          "name": "",
          "type": "address"
        }
      ],
      "stateMutability": "view",
      "type": "function"
    },
    {
      "inputs": [],
      "name": "authorizedSettler",
      "outputs": [
        {
          "internalType": "address",
          "name": "",
          "type": "address"
        }
      ],
      "stateMutability": "view",
      "type": "function"
    },
    {
      "inputs": [
        {
          "internalType": "address",
          "name": "owner",
          "type": "address"
        }
      ],
      "name": "balanceOf",
      "outputs": [
        {
          "internalType": "uint256",
          "name": "",
          "type": "uint256"
        }
      ],
      "stateMutability": "view",
      "type": "function"
    },
    {
      "inputs": [
        {
          "internalType": "uint256",
          "name": "tokenId",
          "type": "uint256"
        }
      ],
      "name": "calculateProfit",
      "outputs": [
        {
          "internalType": "uint256",
          "name": "",
          "type": "uint256"
        }
      ],
      "stateMutability": "view",
      "type": "function"
    },
    {
      "inputs": [
        {
          "internalType": "uint256",
          "name": "tokenId",
          "type": "uint256"
        }
      ],
      "name": "getApproved",
      "outputs": [
        {
          "internalType": "address",
          "name": "",
          "type": "address"
        }
      ],
      "stateMutability": "view",
      "type": "function"
    },
    {
      "inputs": [
        {
          "internalType": "uint256",
          "name": "tokenId",
          "type": "uint256"
        }
      ],
      "name": "getInvoice",
      "outputs": [
        {
          "components": [
            {
              "internalType": "uint256",
              "name": "id",
              "type": "uint256"
            },
            {
              "internalType": "address",
              "name": "sme",
              "type": "address"
            },
            {
              "internalType": "address",
              "name": "investor",
              "type": "address"
            },
            {
              "internalType": "address",
              "name": "client",
              "type": "address"
            },
            {
              "internalType": "uint256",
              "name": "faceValue",
              "type": "uint256"
            },
            {
              "internalType": "uint256",
              "name": "salePrice",
              "type": "uint256"
            },
            {
              "internalType": "uint256",
              "name": "dueDate",
              "type": "uint256"
            },
            {
              "internalType": "string",
              "name": "invoiceURI",
              "type": "string"
            },
            {
              "internalType": "enum InvoiceNFT.Status",
              "name": "status",
              "type": "uint8"
            },
            {
              "internalType": "uint256",
              "name": "createdAt",
              "type": "uint256"
            }
          ],
          "internalType": "struct InvoiceNFT.Invoice",
          "name": "",
          "type": "tuple"
        }
      ],
      "stateMutability": "view",
      "type": "function"
    },
    {
      "inputs": [
        {
          "internalType": "address",
          "name": "client",
          "type": "address"
        }
      ],
      "name": "getInvoicesByClient",
      "outputs": [
        {
          "internalType": "uint256[]",
          "name": "",
          "type": "uint256[]"
        }
      ],
      "stateMutability": "view",
      "type": "function"
    },
    {
      "inputs": [
        {
          "internalType": "address",
          "name": "owner",
          "type": "address"
        }
      ],
      "name": "getInvoicesByOwner",
      "outputs": [
        {
          "internalType": "uint256[]",
          "name": "",
          "type": "uint256[]"
        }
      ],
      "stateMutability": "view",
      "type": "function"
    },
    {
      "inputs": [
        {
          "internalType": "address",
          "name": "sme",
          "type": "address"
        }
      ],
      "name": "getInvoicesBySME",
      "outputs": [
        {
          "internalType": "uint256[]",
          "name": "",
          "type": "uint256[]"
        }
      ],
      "stateMutability": "view",
      "type": "function"
    },
    {
      "inputs": [
        {
          "internalType": "enum InvoiceNFT.Status",
          "name": "status",
          "type": "uint8"
        }
      ],
      "name": "getInvoicesByStatus",
      "outputs": [
        {
          "internalType": "uint256[]",
          "name": "",
          "type": "uint256[]"
        }
      ],
      "stateMutability": "view",
      "type": "function"
    },
    {
      "inputs": [],
      "name": "getTotalInvoices",
      "outputs": [
        {
          "internalType": "uint256",
          "name": "",
          "type": "uint256"
        }
      ],
      "stateMutability": "view",
      "type": "function"
    },
    {
      "inputs": [
        {
          "internalType": "uint256",
          "name": "",
          "type": "uint256"
        }
      ],
      "name": "invoices",
      "outputs": [
        {
          "internalType": "uint256",
          "name": "id",
          "type": "uint256"
        },
        {
          "internalType": "address",
          "name": "sme",
          "type": "address"
        },
        {
          "internalType": "address",
          "name": "investor",
          "type": "address"
        },
        {
          "internalType": "address",
          "name": "client",
          "type": "address"
        },
        {
          "internalType": "uint256",
          "name": "faceValue",
          "type": "uint256"
        },
        {
          "internalType": "uint256",
          "name": "salePrice",
          "type": "uint256"
        },
        {
          "internalType": "uint256",
          "name": "dueDate",
          "type": "uint256"
        },
        {
          "internalType": "string",
          "name": "invoiceURI",
          "type": "string"
        },
        {
          "internalType": "enum InvoiceNFT.Status",
          "name": "status",
          "type": "uint8"
        },
        {
          "internalType": "uint256",
          "name": "createdAt",
          "type": "uint256"
        }
      ],
      "stateMutability": "view",
      "type": "function"
    },
    {
      "inputs": [
        {
          "internalType": "address",
          "name": "owner",
          "type": "address"
        },
        {
          "internalType": "address",
          "name": "operator",
          "type": "address"
        }
      ],
      "name": "isApprovedForAll",
      "outputs": [
        {
          "internalType": "bool",
          "name": "",
          "type": "bool"
        }
      ],
      "stateMutability": "view",
      "type": "function"
    },
    {
      "inputs": [
        {
          "internalType": "uint256",
          "name": "tokenId",
          "type": "uint256"
        }
      ],
      "name": "markAsDefaulted",
      "outputs": [],
      "stateMutability": "nonpayable",
      "type": "function"
    },
    {
      "inputs": [
        {
          "internalType": "uint256",
          "name": "tokenId",
          "type": "uint256"
        }
      ],
      "name": "markAsRepaid",
      "outputs": [],
      "stateMutability": "nonpayable",
      "type": "function"
    },
    {
      "inputs": [
        {
          "internalType": "address",
          "name": "to",
          "type": "address"
        },
        {
          "internalType": "address",
          "name": "client",
          "type": "address"
        },
        {
          "internalType": "uint256",
          "name": "faceValue",
          "type": "uint256"
        },
        {
          "internalType": "uint256",
          "name": "salePrice",
          "type": "uint256"
        },
        {
          "internalType": "uint256",
          "name": "dueDate",
          "type": "uint256"
        },
        {
          "internalType": "string",
          "name": "invoiceURI",
          "type": "string"
        }
      ],
      "name": "mint",
      "outputs": [
        {
          "internalType": "uint256",
          "name": "",
          "type": "uint256"
        }
      ],
      "stateMutability": "nonpayable",
      "type": "function"
    },
    {
      "inputs": [],
      "name": "name",
      "outputs": [
        {
          "internalType": "string",
          "name": "",
          "type": "string"
        }
      ],
      "stateMutability": "view",
      "type": "function"
    },
    {
      "inputs": [],
      "name": "owner",
      "outputs": [
        {
          "internalType": "address",
          "name": "",
          "type": "address"
        }
      ],
      "stateMutability": "view",
      "type": "function"
    },
    {
      "inputs": [
        {
          "internalType": "uint256",
          "name": "tokenId",
          "type": "uint256"
        }
      ],
      "name": "ownerOf",
      "outputs": [
        {
          "internalType": "address",
          "name": "",
          "type": "address"
        }
      ],
      "stateMutability": "view",
      "type": "function"
    },
    {
      "inputs": [],
      "name": "pause",
      "outputs": [],
      "stateMutability": "nonpayable",
      "type": "function"
    },
    {
      "inputs": [],
      "name": "paused",
      "outputs": [
        {
          "internalType": "bool",
          "name": "",
          "type": "bool"
        }
      ],
      "stateMutability": "view",
      "type": "function"
    },
    {
      "inputs": [],
      "name": "platformFee",
      "outputs": [
        {
          "internalType": "uint256",
          "name": "",
          "type": "uint256"
        }
      ],
      "stateMutability": "view",
      "type": "function"
    },
    {
      "inputs": [],
      "name": "renounceOwnership",
      "outputs": [],
      "stateMutability": "nonpayable",
      "type": "function"
    },
    {
      "inputs": [
        {
          "internalType": "address",
          "name": "from",
          "type": "address"
        },
        {
          "internalType": "address",
          "name": "to",
          "type": "address"
        },
        {
          "internalType": "uint256",
          "name": "tokenId",
          "type": "uint256"
        }
      ],
      "name": "safeTransferFrom",
      "outputs": [],
      "stateMutability": "nonpayable",
      "type": "function"
    },
    {
      "inputs": [
        {
          "internalType": "address",
          "name": "from",
          "type": "address"
        },
        {
          "internalType": "address",
          "name": "to",
          "type": "address"
        },
        {
          "internalType": "uint256",
          "name": "tokenId",
          "type": "uint256"
        },
        {
          "internalType": "bytes",
          "name": "data",
          "type": "bytes"
        }
      ],
      "name": "safeTransferFrom",
      "outputs": [],
      "stateMutability": "nonpayable",
      "type": "function"
    },
    {
      "inputs": [
        {
          "internalType": "address",
          "name": "operator",
          "type": "address"
        },
        {
          "internalType": "bool",
          "name": "approved",
          "type": "bool"
        }
      ],
      "name": "setApprovalForAll",
      "outputs": [],
      "stateMutability": "nonpayable",
      "type": "function"
    },
    {
      "inputs": [
        {
          "internalType": "address",
          "name": "minter",
          "type": "address"
        }
      ],
      "name": "setAuthorizedMinter",
      "outputs": [],
      "stateMutability": "nonpayable",
      "type": "function"
    },
    {
      "inputs": [
        {
          "internalType": "address",
          "name": "purchaser",
          "type": "address"
        }
      ],
      "name": "setAuthorizedPurchaser",
      "outputs": [],
      "stateMutability": "nonpayable",
      "type": "function"
    },
    {
      "inputs": [
        {
          "internalType": "address",
          "name": "settler",
          "type": "address"
        }
      ],
      "name": "setAuthorizedSettler",
      "outputs": [],
      "stateMutability": "nonpayable",
      "type": "function"
    },
    {
      "inputs": [
        {
          "internalType": "uint256",
          "name": "newFee",
          "type": "uint256"
        }
      ],
      "name": "setPlatformFee",
      "outputs": [],
      "stateMutability": "nonpayable",
      "type": "function"
    },
    {
      "inputs": [
        {
          "internalType": "bytes4",
          "name": "interfaceId",
          "type": "bytes4"
        }
      ],
      "name": "supportsInterface",
      "outputs": [
        {
          "internalType": "bool",
          "name": "",
          "type": "bool"
        }
      ],
      "stateMutability": "view",
      "type": "function"
    },
    {
      "inputs": [],
      "name": "symbol",
      "outputs": [
        {
          "internalType": "string",
          "name": "",
          "type": "string"
        }
      ],
      "stateMutability": "view",
      "type": "function"
    },
    {
      "inputs": [
        {
          "internalType": "uint256",
          "name": "tokenId",
          "type": "uint256"
        }
      ],
      "name": "tokenURI",
      "outputs": [
        {
          "internalType": "string",
          "name": "",
          "type": "string"
        }
      ],
      "stateMutability": "view",
      "type": "function"
    },
    {
      "inputs": [
        {
          "internalType": "address",
          "name": "from",
          "type": "address"
        },
        {
          "internalType": "address",
          "name": "to",
          "type": "address"
        },
        {
          "internalType": "uint256",
          "name": "tokenId",
          "type": "uint256"
        }
      ],
      "name": "transferFrom",
      "outputs": [],
      "stateMutability": "nonpayable",
      "type": "function"
    },
    {
      "inputs": [
        {
          "internalType": "address",
          "name": "newOwner",
          "type": "address"
        }
      ],
      "name": "transferOwnership",
      "outputs": [],
      "stateMutability": "nonpayable",
      "type": "function"
    },
    {
      "inputs": [],
      "name": "unpause",
      "outputs": [],
      "stateMutability": "nonpayable",
      "type": "function"
    },
    {
      "inputs": [
        {
          "internalType": "uint256",
          "name": "tokenId",
          "type": "uint256"
        },
        {
          "internalType": "enum InvoiceNFT.Status",
          "name": "newStatus",
          "type": "uint8"
        },
        {
          "internalType": "address",
          "name": "newOwner",
          "type": "address"
        }
      ],
      "name": "updateInvoiceStatus",
      "outputs": [],
      "stateMutability": "nonpayable",
      "type": "function"
    },
    {
      "inputs": [],
      "name": "withdrawFees",
      "outputs": [],
      "stateMutability": "nonpayable",
      "type": "function"
    }
  ],
  "bytecode": "0x608060405260fa600a553480156200001657600080fd5b50336040518060400160405280600f81526020016e125b9d9bda58d9519b1bddc8139195608a1b81525060405180604001604052806007815260200166494e564f49434560c81b8152508160009081620000719190620001c5565b506001620000808282620001c5565b5050506001600160a01b038116620000b257604051631e4fbdf760e01b81526000600482015260240160405180910390fd5b620000bd81620000ce565b506001600781905560095562000291565b600680546001600160a01b038381166001600160a01b0319831681179093556040519116919082907f8be0079c531659141344cd1fd0a4f28419497f9722a3daafe3b4186f6b6457e090600090a35050565b634e487b7160e01b600052604160045260246000fd5b600181811c908216806200014b57607f821691505b6020821081036200016c57634e487b7160e01b600052602260045260246000fd5b50919050565b601f821115620001c057600081815260208120601f850160051c810160208610156200019b5750805b601f850160051c820191505b81811015620001bc57828155600101620001a7565b5050505b505050565b81516001600160401b03811115620001e157620001e162000120565b620001f981620001f2845462000136565b8462000172565b602080601f831160018114620002315760008415620002185750858301515b600019600386901b1c1916600185901b178555620001bc565b600085815260208120601f198616915b82811015620002625788860151825594840194600190910190840162000241565b5085821015620002815787850151600019600388901b60f8161c191681555b5050505050600190811b01905550565b6130cb80620002a16000396000f3fe608060405234801561001057600080fd5b50600436106102535760003560e01c806370a0823111610146578063b88d4fde116100c3578063d716e9ca11610087578063d716e9ca1461050b578063dbaf3d0314610513578063e985e9c514610526578063f17779cc14610539578063f2fde38b1461054c578063ffc7b3ba1461055f57600080fd5b8063b88d4fde146104ac578063b8aaaa1e146104bf578063c87b56dd146104d2578063cad6226e146104e5578063d62d7486146104f857600080fd5b80638456cb591161010a5780638456cb59146104655780638da5cb5b1461046d57806395d89b411461047e578063a22cb46514610486578063a87430221461049957600080fd5b806370a0823114610411578063711e11d814610424578063715018a61461043757806372bf61bc1461043f57806373114f3c1461045257600080fd5b80633998a681116101d4578063476343ee11610198578063476343ee146103af5780634e6d1405146103b75780635b21ba6f146103e05780635c975abb146103f35780636352211e146103fe57600080fd5b80633998a6811461034b5780633a23cc0a146103545780633c195e52146103745780633f4ba83a1461039457806342842e0e1461039c57600080fd5b80631928b7c31161021b5780631928b7c3146102e85780631ba538cd146102fb57806323b872dd1461030e57806326232a2e1461032157806333ddad471461033857600080fd5b806301ffc9a71461025857806306fdde0314610280578063081812fc14610295578063095ea7b3146102c057806312e8e2c3146102d5575b600080fd5b61026b610266366004612903565b610572565b60405190151581526020015b60405180910390f35b610288610583565b6040516102779190612966565b6102a86102a3366004612979565b610615565b6040516001600160a01b039091168152602001610277565b6102d36102ce3660046129ae565b61063e565b005b6102d36102e3366004612979565b61064d565b6102d36102f63660046129d8565b6106f2565b6014546102a8906001600160a01b031681565b6102d361031c3660046129f3565b610754565b61032a600a5481565b604051908152602001610277565b6102d3610346366004612979565b6107df565b61032a6101f481565b610367610362366004612979565b61096c565b6040516102779190612a67565b6103876103823660046129d8565b610b35565b6040516102779190612b1c565b6102d3610ba1565b6102d36103aa3660046129f3565b610bb3565b6102d3610bd3565b6103ca6103c5366004612979565b610ccb565b6040516102779a99989796959493929190612b60565b61032a6103ee366004612979565b610db8565b60085460ff1661026b565b6102a861040c366004612979565b610f67565b61032a61041f3660046129d8565b610f72565b6016546102a8906001600160a01b031681565b6102d3610fba565b61038761044d3660046129d8565b610fcc565b610387610460366004612be6565b611036565b6102d36110c1565b6006546001600160a01b03166102a8565b6102886110d1565b6102d3610494366004612c01565b6110e0565b6102d36104a7366004612979565b6110eb565b6102d36104ba366004612cc9565b61126f565b61032a6104cd366004612d45565b611287565b6102886104e0366004612979565b61175f565b6102d36104f33660046129d8565b611859565b6015546102a8906001600160a01b031681565b61032a6118bb565b6102d36105213660046129d8565b6118d1565b61026b610534366004612dd3565b611933565b6103876105473660046129d8565b611961565b6102d361055a3660046129d8565b6119cb565b6102d361056d366004612e06565b611a09565b600061057d82611c46565b92915050565b60606000805461059290612e42565b80601f01602080910402602001604051908101604052809291908181526020018280546105be90612e42565b801561060b5780601f106105e05761010080835404028352916020019161060b565b820191906000526020600020905b8154815290600101906020018083116105ee57829003601f168201915b5050505050905090565b600061062082611c96565b506000828152600460205260409020546001600160a01b031661057d565b610649828233611cce565b5050565b610655611cdb565b6101f48111156106ac5760405162461bcd60e51b815260206004820152601b60248201527f4665652065786365656473206d6178696d756d20616c6c6f776564000000000060448201526064015b60405180910390fd5b600a80549082905560408051828152602081018490527fd347e206f25a89b917fc9482f1a2d294d749baa4dc9bde7fb495ee11fe49164391015b60405180910390a15050565b6106fa611cdb565b601480546001600160a01b038381166001600160a01b031983168117909355604080519190921680825260208201939093527f808ec13129987deb49ec337ab895a2cf7af16a4d0d55a51ddc054e2c7fb2515b91016106e6565b6001600160a01b03821661077e57604051633250574960e11b8152600060048201526024016106a3565b600061078b838333611d08565b9050836001600160a01b0316816001600160a01b0316146107d9576040516364283d7b60e01b81526001600160a01b03808616600483015260248201849052821660448201526064016106a3565b50505050565b6006546001600160a01b031633148061080257506015546001600160a01b031633145b6108495760405162461bcd60e51b81526020600482015260186024820152774e6f7420617574686f72697a656420746f20736574746c6560401b60448201526064016106a3565b600061085482611dfc565b6001600160a01b03160361087a5760405162461bcd60e51b81526004016106a390612e7c565b6000818152600b602052604090206001600882015460ff1660038111156108a3576108a3612a2f565b146108ec5760405162461bcd60e51b8152602060048201526019602482015278496e766f696365206e6f7420696e20736f6c6420737461746560381b60448201526064016106a3565b6108f7826001611e17565b60088101805460ff19166002908117909155610914908390611fbc565b6003810154600282015460048301546040519081526001600160a01b03928316929091169084907f9c9692e134fe5d52dc8ec3b49036afe739f4e4da1a009dcd92fa13f53b280b0f9060200160405180910390a45050565b604080516101408101825260008082526020820181905291810182905260608082018390526080820183905260a0820183905260c0820183905260e082015261010081018290526101208101829052906109c583611dfc565b6001600160a01b0316036109eb5760405162461bcd60e51b81526004016106a390612e7c565b6000828152600b60209081526040918290208251610140810184528154815260018201546001600160a01b039081169382019390935260028201548316938101939093526003810154909116606083015260048101546080830152600581015460a0830152600681015460c083015260078101805460e084019190610a6f90612e42565b80601f0160208091040260200160405190810160405280929190818152602001828054610a9b90612e42565b8015610ae85780601f10610abd57610100808354040283529160200191610ae8565b820191906000526020600020905b815481529060010190602001808311610acb57829003601f168201915b5050509183525050600882015460209091019060ff166003811115610b0f57610b0f612a2f565b6003811115610b2057610b20612a2f565b81526020016009820154815250509050919050565b6001600160a01b0381166000908152600d6020908152604091829020805483518184028101840190945280845260609392830182828015610b9557602002820191906000526020600020905b815481526020019060010190808311610b81575b50505050509050919050565b610ba9611cdb565b610bb1612093565b565b610bce8383836040518060200160405280600081525061126f565b505050565b610bdb611cdb565b4780610c1f5760405162461bcd60e51b81526020600482015260136024820152724e6f206665657320746f20776974686472617760681b60448201526064016106a3565b6000610c336006546001600160a01b031690565b6001600160a01b03168260405160006040518083038185875af1925050503d8060008114610c7d576040519150601f19603f3d011682016040523d82523d6000602084013e610c82565b606091505b50509050806106495760405162461bcd60e51b8152602060048201526015602482015274119959481dda5d1a191c985dd85b0819985a5b1959605a1b60448201526064016106a3565b600b602052600090815260409020805460018201546002830154600384015460048501546005860154600687015460078801805497986001600160a01b0397881698968816979095169593949293919291610d2590612e42565b80601f0160208091040260200160405190810160405280929190818152602001828054610d5190612e42565b8015610d9e5780601f10610d7357610100808354040283529160200191610d9e565b820191906000526020600020905b815481529060010190602001808311610d8157829003601f168201915b505050506008830154600990930154919260ff169190508a565b6000818152600b602090815260408083208151610140810183528154815260018201546001600160a01b039081169482019490945260028201548416928101929092526003810154909216606082015260048201546080820152600582015460a0820152600682015460c082015260078201805484939160e0840191610e3d90612e42565b80601f0160208091040260200160405190810160405280929190818152602001828054610e6990612e42565b8015610eb65780601f10610e8b57610100808354040283529160200191610eb6565b820191906000526020600020905b815481529060010190602001808311610e9957829003601f168201915b5050509183525050600882015460209091019060ff166003811115610edd57610edd612a2f565b6003811115610eee57610eee612a2f565b815260200160098201548152505090508060a00151816080015111610f4c5760405162461bcd60e51b8152602060048201526014602482015273496e76616c696420696e766f696365206461746160601b60448201526064016106a3565b8060a001518160800151610f609190612ec2565b9392505050565b600061057d82611c96565b60006001600160a01b038216610f9e576040516322718ad960e21b8152600060048201526024016106a3565b506001600160a01b031660009081526003602052604090205490565b610fc2611cdb565b610bb160006120e5565b6001600160a01b0381166000908152600e6020908152604091829020805483518184028101840190945280845260609392830182828015610b955760200282019190600052602060002090815481526020019060010190808311610b815750505050509050919050565b6060600c600083600381111561104e5761104e612a2f565b600381111561105f5761105f612a2f565b8152602001908152602001600020805480602002602001604051908101604052809291908181526020018280548015610b955760200282019190600052602060002090815481526020019060010190808311610b815750505050509050919050565b6110c9611cdb565b610bb1612137565b60606001805461059290612e42565b610649338383612174565b6006546001600160a01b031633148061110e57506015546001600160a01b031633145b6111555760405162461bcd60e51b81526020600482015260186024820152774e6f7420617574686f72697a656420746f20736574746c6560401b60448201526064016106a3565b600061116082611dfc565b6001600160a01b0316036111865760405162461bcd60e51b81526004016106a390612e7c565b6000818152600b602052604090206001600882015460ff1660038111156111af576111af612a2f565b146111f85760405162461bcd60e51b8152602060048201526019602482015278496e766f696365206e6f7420696e20736f6c6420737461746560381b60448201526064016106a3565b611203826001611e17565b60088101805460ff19166003908117909155611220908390611fbc565b600281015460048201546040519081526001600160a01b039091169083907f7efcf3175a39d7e04b5ee348b56c5a07a158d5d416d96a6eb4dc04a9a5cac9b49060200160405180910390a35050565b61127a848484610754565b6107d93385858585612213565b600061129161233d565b611299612361565b6006546001600160a01b03163314806112bc57506014546001600160a01b031633145b6113015760405162461bcd60e51b8152602060048201526016602482015275139bdd08185d5d1a1bdc9a5e9959081d1bc81b5a5b9d60521b60448201526064016106a3565b6001600160a01b0386166113575760405162461bcd60e51b815260206004820152601d60248201527f436c69656e7420616464726573732063616e6e6f74206265207a65726f00000060448201526064016106a3565b866001600160a01b0316866001600160a01b0316036113b85760405162461bcd60e51b815260206004820152601860248201527f534d452063616e6e6f742062652074686520636c69656e74000000000000000060448201526064016106a3565b600085116114145760405162461bcd60e51b8152602060048201526024808201527f466163652076616c7565206d7573742062652067726561746572207468616e206044820152637a65726f60e01b60648201526084016106a3565b600084116114705760405162461bcd60e51b8152602060048201526024808201527f53616c65207072696365206d7573742062652067726561746572207468616e206044820152637a65726f60e01b60648201526084016106a3565b8484106114cf5760405162461bcd60e51b815260206004820152602760248201527f53616c65207072696365206d757374206265206c657373207468616e20666163604482015266652076616c756560c81b60648201526084016106a3565b42831161151e5760405162461bcd60e51b815260206004820152601e60248201527f4475652064617465206d75737420626520696e2074686520667574757265000060448201526064016106a3565b600082511161156f5760405162461bcd60e51b815260206004820152601b60248201527f496e766f696365205552492063616e6e6f7420626520656d707479000000000060448201526064016106a3565b60098054908190600061158183612ed5565b9190505550604051806101400160405280828152602001896001600160a01b0316815260200160006001600160a01b03168152602001886001600160a01b03168152602001878152602001868152602001858152602001848152602001600060038111156115f1576115f1612a2f565b8152426020918201526000838152600b825260409081902083518155918301516001830180546001600160a01b03199081166001600160a01b0393841617909155918401516002840180548416918316919091179055606084015160038401805490931691161790556080820151600482015560a0820151600582015560c0820151600682015560e0820151600782019061168c9082612f34565b5061010082015160088201805460ff191660018360038111156116b1576116b1612a2f565b021790555061012082015181600901559050506116ce888261238b565b6116d9816000611fbc565b6116e381896123a5565b6116ed8188612408565b6116f7818961246b565b866001600160a01b0316886001600160a01b0316827f21a837b67e4fc461cc01971a2c7b013c6a67db63039ce8b2d89d81c208e3b066898989896040516117419493929190612ff4565b60405180910390a490506117556001600755565b9695505050505050565b6060600061176c83611dfc565b6001600160a01b0316036117c25760405162461bcd60e51b815260206004820152601f60248201527f55524920717565727920666f72206e6f6e6578697374656e7420746f6b656e0060448201526064016106a3565b6000828152600b6020526040902060070180546117de90612e42565b80601f016020809104026020016040519081016040528092919081815260200182805461180a90612e42565b8015610b955780601f1061182c57610100808354040283529160200191610b95565b820191906000526020600020905b81548152906001019060200180831161183a5750939695505050505050565b611861611cdb565b601580546001600160a01b038381166001600160a01b031983168117909355604080519190921680825260208201939093527fd87216b38183b71891e43847b0b464a1d8f55037cca64f929328df6fe015d23891016106e6565b600060016009546118cc9190612ec2565b905090565b6118d9611cdb565b601680546001600160a01b038381166001600160a01b031983168117909355604080519190921680825260208201939093527f349a29564f65915436b5e5a1bbbc7bfcb50ccd3cd3bc249db6285bca5c07602391016106e6565b6001600160a01b03918216600090815260056020908152604080832093909416825291909152205460ff1690565b6001600160a01b0381166000908152600f6020908152604091829020805483518184028101840190945280845260609392830182828015610b955760200282019190600052602060002090815481526020019060010190808311610b815750505050509050919050565b6119d3611cdb565b6001600160a01b0381166119fd57604051631e4fbdf760e01b8152600060048201526024016106a3565b611a06816120e5565b50565b6006546001600160a01b0316331480611a32575033611a2784611dfc565b6001600160a01b0316145b80611a4d575033611a4284610615565b6001600160a01b0316145b80611a655750611a65611a5f84611dfc565b33611933565b80611a7a57506016546001600160a01b031633145b611ab75760405162461bcd60e51b815260206004820152600e60248201526d139bdd08185d5d1a1bdc9a5e995960921b60448201526064016106a3565b6000611ac284611dfc565b6001600160a01b031603611ae85760405162461bcd60e51b81526004016106a390612e7c565b6000838152600b60205260409020600881015460ff16611b088582611e17565b60088201805485919060ff19166001836003811115611b2957611b29612a2f565b0217905550611b388585611fbc565b6001846003811115611b4c57611b4c612a2f565b03611c3f576001600160a01b038316611b9b5760405162461bcd60e51b815260206004820152601160248201527024b73b30b634b2103732bb9037bbb732b960791b60448201526064016106a3565b6002820180546001600160a01b0319166001600160a01b03858116919091179091556001830154611bce911684876124ce565b6001820154611be79086906001600160a01b031661257e565b611bf185846123a5565b600182015460058301546040519081526001600160a01b0385811692169087907f23212323145b932a53beba6e8f7c3467bf3fc0cb4c33b3751a9cb0a77f588c209060200160405180910390a45b5050505050565b60006001600160e01b031982166380ac58cd60e01b1480611c7757506001600160e01b03198216635b5e139f60e01b145b8061057d57506301ffc9a760e01b6001600160e01b031983161461057d565b600080611ca283611dfc565b90506001600160a01b03811661057d57604051637e27328960e01b8152600481018490526024016106a3565b610bce838383600161267d565b6006546001600160a01b03163314610bb15760405163118cdaa760e01b81523360048201526024016106a3565b600080611d1484611dfc565b90506001600160a01b03831615611d3057611d30818486612783565b6001600160a01b03811615611d6e57611d4d60008560008061267d565b6001600160a01b038116600090815260036020526040902080546000190190555b6001600160a01b03851615611d9d576001600160a01b0385166000908152600360205260409020805460010190555b60008481526002602052604080822080546001600160a01b0319166001600160a01b0389811691821790925591518793918516917fddf252ad1be2c89b69c2b068fc378daa952ba7f163c4a11628f55a4df523b3ef91a4949350505050565b6000908152600260205260409020546001600160a01b031690565b6000600c6000836003811115611e2f57611e2f612a2f565b6003811115611e4057611e40612a2f565b815260200190815260200160002090506000601060008581526020019081526020016000206000846003811115611e7957611e79612a2f565b6003811115611e8a57611e8a612a2f565b8152602001908152602001600020549050600060018380549050611eae9190612ec2565b9050808214611f45576000838281548110611ecb57611ecb613019565b9060005260206000200154905080848481548110611eeb57611eeb613019565b906000526020600020018190555082601060008381526020019081526020016000206000876003811115611f2157611f21612a2f565b6003811115611f3257611f32612a2f565b8152602081019190915260400160002055505b82805480611f5557611f5561302f565b60019003818190600052602060002001600090559055601060008681526020019081526020016000206000856003811115611f9257611f92612a2f565b6003811115611fa357611fa3612a2f565b8152602001908152602001600020600090555050505050565b600c6000826003811115611fd257611fd2612a2f565b6003811115611fe357611fe3612a2f565b81526020808201929092526040016000908120805460018181018355918352928220909201849055600c9083600381111561202057612020612a2f565b600381111561203157612031612a2f565b815260208101919091526040016000205461204c9190612ec2565b60008381526010602052604081209083600381111561206d5761206d612a2f565b600381111561207e5761207e612a2f565b81526020810191909152604001600020555050565b61209b6127e7565b6008805460ff191690557f5db9ee0a495bf2e6ff9c91a7834c1ba4fdd244a5e8aa4e537bd38aeae4b073aa335b6040516001600160a01b03909116815260200160405180910390a1565b600680546001600160a01b038381166001600160a01b0319831681179093556040519116919082907f8be0079c531659141344cd1fd0a4f28419497f9722a3daafe3b4186f6b6457e090600090a35050565b61213f61233d565b6008805460ff191660011790557f62e78cea01bee320cd4e420270b5ea74000d11b0c9f74754ebdbfc544b05a2586120c83390565b6001600160a01b0382166121a657604051630b61174360e31b81526001600160a01b03831660048201526024016106a3565b6001600160a01b03838116600081815260056020908152604080832094871680845294825291829020805460ff191686151590811790915591519182527f17307eab39ab6107e8899845ad3d59bd9653f200f220920489ca2b5937696c31910160405180910390a3505050565b6001600160a01b0383163b15611c3f57604051630a85bd0160e11b81526001600160a01b0384169063150b7a0290612255908890889087908790600401613045565b6020604051808303816000875af1925050508015612290575060408051601f3d908101601f1916820190925261228d91810190613078565b60015b6122f9573d8080156122be576040519150601f19603f3d011682016040523d82523d6000602084013e6122c3565b606091505b5080516000036122f157604051633250574960e11b81526001600160a01b03851660048201526024016106a3565b805160208201fd5b6001600160e01b03198116630a85bd0160e11b1461233557604051633250574960e11b81526001600160a01b03851660048201526024016106a3565b505050505050565b60085460ff1615610bb15760405163d93c066560e01b815260040160405180910390fd5b60026007540361238457604051633ee5aeb560e01b815260040160405180910390fd5b6002600755565b61064982826040518060200160405280600081525061280a565b6001600160a01b0381166000818152600d602090815260408220805460018181018355828552928420018690559290915290546123e29190612ec2565b60009283526011602090815260408085206001600160a01b039094168552929052912055565b6001600160a01b0381166000818152600e602090815260408220805460018181018355828552928420018690559290915290546124459190612ec2565b60009283526012602090815260408085206001600160a01b039094168552929052912055565b6001600160a01b0381166000818152600f602090815260408220805460018181018355828552928420018690559290915290546124a89190612ec2565b60009283526013602090815260408085206001600160a01b039094168552929052912055565b6001600160a01b0382166124f857604051633250574960e11b8152600060048201526024016106a3565b600061250683836000611d08565b90506001600160a01b03811661253257604051637e27328960e01b8152600481018390526024016106a3565b836001600160a01b0316816001600160a01b0316146107d9576040516364283d7b60e01b81526001600160a01b03808616600483015260248201849052821660448201526064016106a3565b6001600160a01b0381166000818152600d60209081526040808320868452601183528184209484529390915281205482549091906125be90600190612ec2565b905080821461262d5760008382815481106125db576125db613019565b90600052602060002001549050808484815481106125fb576125fb613019565b60009182526020808320909101929092559182526011815260408083206001600160a01b038816845290915290208290555b8280548061263d5761263d61302f565b6000828152602080822083016000199081018390559092019092559581526011865260408082206001600160a01b03909616825294909552505050812055565b808061269157506001600160a01b03821615155b156127535760006126a184611c96565b90506001600160a01b038316158015906126cd5750826001600160a01b0316816001600160a01b031614155b80156126e057506126de8184611933565b155b156127095760405163a9fbf51f60e01b81526001600160a01b03841660048201526024016106a3565b81156127515783856001600160a01b0316826001600160a01b03167f8c5be1e5ebec7d5bd14f71427d1e84f3dd0314c0f7b2291e5b200ac8c7c3b92560405160405180910390a45b505b5050600090815260046020526040902080546001600160a01b0319166001600160a01b0392909216919091179055565b61278e838383612822565b610bce576001600160a01b0383166127bc57604051637e27328960e01b8152600481018290526024016106a3565b60405163177e802f60e01b81526001600160a01b0383166004820152602481018290526044016106a3565b60085460ff16610bb157604051638dfc202b60e01b815260040160405180910390fd5b6128148383612888565b610bce336000858585612213565b60006001600160a01b038316158015906128805750826001600160a01b0316846001600160a01b0316148061285c575061285c8484611933565b8061288057506000828152600460205260409020546001600160a01b038481169116145b949350505050565b6001600160a01b0382166128b257604051633250574960e11b8152600060048201526024016106a3565b60006128c083836000611d08565b90506001600160a01b03811615610bce576040516339e3563760e11b8152600060048201526024016106a3565b6001600160e01b031981168114611a0657600080fd5b60006020828403121561291557600080fd5b8135610f60816128ed565b6000815180845260005b818110156129465760208185018101518683018201520161292a565b506000602082860101526020601f19601f83011685010191505092915050565b602081526000610f606020830184612920565b60006020828403121561298b57600080fd5b5035919050565b80356001600160a01b03811681146129a957600080fd5b919050565b600080604083850312156129c157600080fd5b6129ca83612992565b946020939093013593505050565b6000602082840312156129ea57600080fd5b610f6082612992565b600080600060608486031215612a0857600080fd5b612a1184612992565b9250612a1f60208501612992565b9150604084013590509250925092565b634e487b7160e01b600052602160045260246000fd5b60048110612a6357634e487b7160e01b600052602160045260246000fd5b9052565b602081528151602082015260006020830151612a8e60408401826001600160a01b03169052565b5060408301516001600160a01b03811660608401525060608301516001600160a01b038116608084015250608083015160a083015260a083015160c083015260c083015160e083015260e08301516101406101008181860152612af5610160860184612920565b90860151909250610120612b0b86820183612a45565b959095015193019290925250919050565b6020808252825182820181905260009190848201906040850190845b81811015612b5457835183529284019291840191600101612b38565b50909695505050505050565b8a81526001600160a01b038a811660208301528981166040830152881660608201526080810187905260a0810186905260c0810185905261014060e08201819052600090612bb083820187612920565b915050612bc1610100830185612a45565b826101208301529b9a5050505050505050505050565b8035600481106129a957600080fd5b600060208284031215612bf857600080fd5b610f6082612bd7565b60008060408385031215612c1457600080fd5b612c1d83612992565b915060208301358015158114612c3257600080fd5b809150509250929050565b634e487b7160e01b600052604160045260246000fd5b600067ffffffffffffffff80841115612c6e57612c6e612c3d565b604051601f8501601f19908116603f01168101908282118183101715612c9657612c96612c3d565b81604052809350858152868686011115612caf57600080fd5b858560208301376000602087830101525050509392505050565b60008060008060808587031215612cdf57600080fd5b612ce885612992565b9350612cf660208601612992565b925060408501359150606085013567ffffffffffffffff811115612d1957600080fd5b8501601f81018713612d2a57600080fd5b612d3987823560208401612c53565b91505092959194509250565b60008060008060008060c08789031215612d5e57600080fd5b612d6787612992565b9550612d7560208801612992565b945060408701359350606087013592506080870135915060a087013567ffffffffffffffff811115612da657600080fd5b8701601f81018913612db757600080fd5b612dc689823560208401612c53565b9150509295509295509295565b60008060408385031215612de657600080fd5b612def83612992565b9150612dfd60208401612992565b90509250929050565b600080600060608486031215612e1b57600080fd5b83359250612e2b60208501612bd7565b9150612e3960408501612992565b90509250925092565b600181811c90821680612e5657607f821691505b602082108103612e7657634e487b7160e01b600052602260045260246000fd5b50919050565b602080825260169082015275125b9d9bda58d948191bd95cc81b9bdd08195e1a5cdd60521b604082015260600190565b634e487b7160e01b600052601160045260246000fd5b8181038181111561057d5761057d612eac565b600060018201612ee757612ee7612eac565b5060010190565b601f821115610bce57600081815260208120601f850160051c81016020861015612f155750805b601f850160051c820191505b8181101561233557828155600101612f21565b815167ffffffffffffffff811115612f4e57612f4e612c3d565b612f6281612f5c8454612e42565b84612eee565b602080601f831160018114612f975760008415612f7f5750858301515b600019600386901b1c1916600185901b178555612335565b600085815260208120601f198616915b82811015612fc657888601518255948401946001909101908401612fa7565b5085821015612fe45787850151600019600388901b60f8161c191681555b5050505050600190811b01905550565b8481528360208201528260408201526080606082015260006117556080830184612920565b634e487b7160e01b600052603260045260246000fd5b634e487b7160e01b600052603160045260246000fd5b6001600160a01b038581168252841660208201526040810183905260806060820181905260009061175590830184612920565b60006020828403121561308a57600080fd5b8151610f60816128ed56fea26469706673582212208e328536afeb59346f29088d099c8c1f8a40d32152c25991f2b64596a5c7ab9164736f6c63430008140033",
  "linkReferences": {},
  "deployedLinkReferences": {}
}